:100000000C942A000C9447000C9447000C94470071
:100010000C9447000C9454000C9447000C94470037
:100020000C9447000C9447000C9447000C94470034
:100030000C9447000C9447000C9447000C94470024
:100040000C9447000C9447000C9447000C94470014
:100050000C94470011241FBECFE5D8E0DEBFCDBF12
:1000600010E0A0E6B0E0E2E2F1E002C005900D92FF
:10007000A036B107D9F720E0A0E6B0E001C01D929C
:10008000A536B207E1F70E9449000C948F000C944A
:100090000000FFCF85B58E7F85BD85B58D7F85BD81
:1000A00085B58B7F85BD08951F920F920FB60F9275
:1000B00011242F933F934F935F936F937F938F936D
:1000C0009F93AF93BF93EF93FF93809162009091C2
:1000D000630001969093630080936200209160001A
:1000E000309161008217930748F0109263001092DC
:1000F000620081E0809364000E944A00FF91EF91CA
:10010000BF91AF919F918F917F916F915F914F912F
:100110003F912F910F900FBE0F901F901895F8945C
:02012000FFCF0F
:00000001FF
