:100000000C942A000C94B6020C94DD020C940403A8
:100010000C9447000C948B040C9447000C944700FC
:100020000C9447000C9447000C9447000C94470034
:100030000C9447000C9447000C9447000C94470024
:100040000C9447000C9447000C9447000C94470014
:100050000C94470011241FBECFE5D8E0DEBFCDBF12
:1000600010E0A0E6B0E0E2E0F2E102C005900D92FF
:10007000A238B107D9F720E0A2E8B0E001C01D9294
:10008000AF3AB207E1F70E9491000C94FF080C947C
:10009000000082E790E00E948700089580E790E0EA
:1000A0000E94870008950E94D70581E08093820016
:1000B000089582E790E00E947C0080E790E00E9433
:1000C0007C008CE690E00E9479000E94F00466E6D5
:1000D00070E080E00E941D0560E670E081E00E9413
:1000E0001D050895809182008111FCCF0E94490571
:1000F000F9CF0E9411020895009739F0FC0160E0E9
:1001000080810E94980081E0089580E00895009722
:1001100031F0FC0180810E94950181E0089580E02A
:1001200008950E9459000E94720080E090E00895B6
:10013000982F9695969596958770613009F455C0DD
:1001400020F0623009F4A1C008959130C1F028F088
:10015000923039F19330B9F108954AB321E030E09B
:10016000B90102C0660F771F8A95E2F7CB01942F81
:10017000982B9ABB9BB3809589238BBB089547B37B
:1001800021E030E0B90102C0660F771F8A95E2F7DF
:10019000CB01942F982B97BB98B38095892388BB6C
:1001A000089544B321E030E0B90102C0660F771F23
:1001B0008A95E2F7CB01942F982B94BB95B3809549
:1001C000892385BB089541B321E030E0B90102C025
:1001D000660F771F8A95E2F7CB01942F982B91BB7E
:1001E00092B38095892382BB08959130C1F028F0A5
:1001F000923039F19330B9F108954AB321E030E0FB
:10020000B90102C0660F771F8A95E2F7CB0180958E
:10021000942F98239ABB9BB389238BBB089547B334
:1002200021E030E0B90102C0660F771F8A95E2F73E
:10023000CB018095942F982397BB98B3892388BBD3
:10024000089544B321E030E0B90102C0660F771F82
:100250008A95E2F7CB018095942F982394BB95B3B0
:10026000892385BB089541B321E030E0B90102C084
:10027000660F771F8A95E2F7CB018095942F98231C
:1002800091BB92B3892382BB08959130C1F028F0CD
:10029000923039F19330B9F108954AB321E030E05A
:1002A000B90102C0660F771F8A95E2F7CB01962F3E
:1002B000909594239ABB9BB3892B8BBB089547B32E
:1002C00021E030E0B90102C0660F771F8A95E2F79E
:1002D000CB01962F9095942397BB98B3892B88BB1D
:1002E000089544B321E030E0B90102C0660F771FE2
:1002F0008A95E2F7CB01962F9095942394BB95B302
:10030000892B85BB089541B321E030E0B90102C0DB
:10031000660F771F8A95E2F7CB01962F909594236D
:1003200091BB92B3892B82BB0895982F9695969591
:1003300096958770913099F028F09230E9F09330DB
:1003400041F108954BB321E030E0B90102C0660FDE
:10035000771F8A95E2F7CB0184278BBB089548B3BA
:1003600021E030E0B90102C0660F771F8A95E2F7FD
:10037000CB01842788BB089545B321E030E0B90163
:1003800002C0660F771F8A95E2F7CB01842785BBF1
:10039000089542B321E030E0B90102C0660F771F33
:1003A0008A95E2F7CB01842782BB0895009731F04C
:1003B000909388008093870081E0089580E00895FD
:1003C000009731F0909386008093850081E0089536
:1003D00080E00895009731F090938400809383002B
:1003E00081E0089580E008950097B9F0FC018281D2
:1003F000813049F018F0823059F011C0808191812C
:100400000E94D6010895808191810E94E0010895A3
:10041000808191810E94EA01089580E0089580E042
:1004200008951F93CF93DF93009709F497C0EC01D1
:100430008A818130E9F120F0823009F471C090C0E6
:100440008B8181110AC00E942B038BB780648BBF04
:1004500085B78C7F85BF11E027C0813059F40E9499
:100460002B038BB780648BBF85B78D7F816085BF81
:1004700011E01AC0823059F40E942B038BB78064BC
:100480008BBF85B782608E7F85BF11E00DC0833042
:1004900051F40E942B038BB780648BBF85B78360B8
:1004A00085BF11E001C010E0CE010E94F40159C0E7
:1004B0008B8181110AC00E942B038BB780688BBF90
:1004C00085B7837F85BF11E027C0813059F40E9432
:1004D0002B038BB780688BBF85B7877F846085BF10
:1004E00011E01AC0823059F40E942B038BB7806848
:1004F0008BBF85B788608B7F85BF11E00DC08330CF
:1005000051F40E942B038BB780688BBF85B78C603A
:1005100085BF11E001C010E0CE010E94F40121C0AE
:100520008B81823051F40E942B038BB780628BBF8A
:1005300084B78F7B84BF11E00DC0833051F40E94DB
:100540002B038BB780628BBF84B7806484BF11E0BC
:1005500001C010E0CE010E94F40103C010E001C010
:1005600010E0812FDF91CF911F9108951F920F927C
:100570000FB60F9211242F933F934F935F936F9376
:100580007F938F939F93AF93BF93EF93FF93E091EC
:100590008700F09188000995FF91EF91BF91AF918D
:1005A0009F918F917F916F915F914F913F912F918B
:1005B0000F900FBE0F901F9018951F920F920FB6BD
:1005C0000F9211242F933F934F935F936F937F93D9
:1005D0008F939F93AF93BF93EF93FF93E091850029
:1005E000F09186000995FF91EF91BF91AF919F9196
:1005F0008F917F916F915F914F913F912F910F90CC
:100600000FBE0F901F9018951F920F920FB60F926A
:1006100011242F933F934F935F936F937F938F9307
:100620009F93AF93BF93EF93FF93E0918300F0917B
:1006300084000995FF91EF91BF91AF919F918F91A8
:100640007F916F915F914F913F912F910F900FBECE
:100650000F901F9018958FB780688FBF08958823DB
:1006600019F0813079F016C085B58F7B85BD85B5D1
:10067000877F85BD8FB780688FBF89B7806489BF4A
:1006800080E0089585B58F7B85BD85B5877F85BD65
:1006900080E0089581E00895CF92DF92EF92FF927B
:1006A000BC0180E090E00E94230720E030E04AE7B0
:1006B00054E40E9482066B017C0127E337E346E89D
:1006C00055E40E94160818160CF49EC015BC2DEBBC
:1006D00037E346E85DE3C701B6010E947D06882343
:1006E000F4F52DEB37E346E85DE3C701B6010E9460
:1006F00082060E9466060E94F40670938E00609344
:100700008D0080E090E00E94230720E030E040E888
:100710005FE30E94F9052DEB37E346E85DE30E94B5
:100720001B089B01AC01C701B6010E94F90523EB30
:100730003FEE4AE859E30E9482069B01AC0160E06B
:1007400070E080E893E40E94F9050E94F40664BD1D
:1007500084B590E090938C0080938B004FC02DEB7C
:1007600037E346E85DE3C701B6010E947D068111CB
:1007700008C014BC81E090E090938E0080938D00BF
:100780003DC02DEB37E346E85DE3C701B6010E94AB
:1007900082060E9466060E94F40670938E006093A3
:1007A0008D0080E090E00E94230720E030E040E8E8
:1007B0005FE30E94F9052DEB37E346E85DE30E9415
:1007C0001B089B01AC01C701B6010E94F90523EB90
:1007D0003FEE4AE859E30E9482069B01AC0160E0CB
:1007E00070E080E893E40E94F9050E94F40664BD7D
:1007F00084B590E090938C0080938B0010929000D1
:1008000010928F0080E001C081E0FF90EF90DF90B8
:10081000CF90089580349105C1F150F4883091054E
:1008200001F18032910541F1019709F058C00EC0E5
:10083000811521E09207E9F1811524E0920709F47E
:1008400043C08038910509F04AC028C085B58D7F26
:1008500085BD85B58B7F85BD85B5816085BD80E013
:10086000089585B58E7F85BD85B58B7F85BD85B5A2
:10087000826085BD80E0089585B58B7F85BD85B597
:10088000826085BD85B5816085BD85B5846085BD87
:1008900085B58D7F85BD85B58E7F85BD85B58B7F03
:1008A00085BD85B58D7F85BD85B5816085BD80E0C1
:1008B000089585B5826085BD85B58E7F85BD85B57A
:1008C000846085BD80E0089585B5826085BD85B56D
:1008D000846085BD85B5816085BD80E0089581E037
:1008E000089585B58E7F85BD85B58D7F85BD85B520
:1008F0008B7F85BD08950E94710489B78F7B89BF66
:100900000895009731F090938A008093890080E0E9
:10091000089581E008951F920F920FB60F9211244F
:100920002F933F934F935F936F937F938F939F93F7
:10093000AF93BF93EF93FF9380918F0090919000BE
:1009400001969093900080938F0020918D003091BC
:100950008E008217930760F080918B0084BD109207
:10096000900010928F00E0918900F0918A00099523
:10097000FF91EF91BF91AF919F918F917F916F9177
:100980005F914F913F912F910F900FBE0F901F904D
:10099000189581E080939900209191003091920008
:1009A0004091930050919400609195007091960051
:1009B0008091970090919800A1E00E94E708209311
:1009C0009100309392004093930050939400609371
:1009D00095007093960080939700909398000895E7
:1009E000CF93DF9380919A00811123C0C5E7D0E0B7
:1009F000E981FA8180E090E00995E985FA8581E056
:100A000090E00995EB85FC8589EC94E0099581E0FF
:100A100080939A0080E009C0E82FF0E0EE0FFF1FFE
:100A2000E556FF4F118210828F5F8A30A8F380E075
:100A300001C081E0DF91CF91089561157105F9F052
:100A4000FB0122813381232BE1F020813181232B93
:100A5000D1F0282F30E0F901EE0FFF1FE556FF4FD0
:100A600040815181452B89F48A3088F4220F331F4D
:100A7000F901E556FF4F7183608380E0089582E0BD
:100A8000089582E0089583E0089584E0089584E065
:100A900008958F929F92AF92BF92CF92DF92EF9282
:100AA000FF920F931F93CF9380E00BC0E82FF0E0ED
:100AB000EE0FFF1FE556FF4F20813181232B19F4E4
:100AC0008F5F8A3098F38A3009F462C01092740004
:100AD000E0917A00F0917B0088E090E009958091A8
:100AE0007400823009F456C0882321F0813009F463
:100AF00046C0F5CF80919900813089F780937400CA
:100B0000EECFEC2FF0E0EE0FFF1FE556FF4F808099
:100B100091808114910489F1D4010D911C91B091BF
:100B20009100A0919200F0919300E0919400909137
:100B3000950080919600A02EB12EC12CD12CE12CD5
:100B4000F12C00E010E02B2F3A2F4F2F5E2F692F52
:100B5000782F80919700909198000E948808A0E0DB
:100B60000E94F30851F4D4011296ED91FC91139771
:100B700014968D919C9115970995CF5F01C0C0E0A7
:100B8000CA3008F4BECF1092990010927400A7CF1B
:100B900087E001C088E0CF911F910F91FF90EF9007
:100BA000DF90CF90BF90AF909F908F9008958091ED
:100BB00074008230E1F082E080937400109299001A
:100BC0001092910010929200109293001092940053
:100BD0001092950010929600109297001092980033
:100BE000E0917C00F0917D00099580E0089581E01E
:100BF00008955058BB27AA270E9411060C94C407D9
:100C00000E94B60738F00E94BD0720F039F49F3FDC
:100C100019F426F40C94B3070EF4E095E7FB0C945A
:100C20008407E92F0E94D50758F3BA1762077307A4
:100C30008407950720F079F4A6F50C940F080EF4BC
:100C4000E0950B2EBA2FA02D0B01B90190010C01DC
:100C5000CA01A0011124FF27591B99F0593F50F4F4
:100C6000503E68F11A16F040A22F232F342F44274C
:100C7000585FF3CF469537952795A795F040539544
:100C8000C9F77EF41F16BA0B620B730B840BBAF014
:100C90009150A1F0FF0FBB1F661F771F881FC2F77F
:100CA0000EC0BA0F621F731F841F48F48795779593
:100CB0006795B795F7959E3F08F0B0CF9395880F4D
:100CC00008F09927EE0F9795879508950E94F707EA
:100CD00090F09F3748F4911116F40C94100860E0DE
:100CE00070E080E89FE3089526F01B16611D711DDA
:100CF000811D0C948A070C94A5070E94600708F4D4
:100D000081E008950E9496060C94C4070E94BD07D6
:100D100058F00E94B60740F029F45F3F29F00C9488
:100D2000840751110C9410080C94B3070E94D50746
:100D300068F39923B1F3552391F3951B550BBB270A
:100D4000AA2762177307840738F09F5F5F4F220F4F
:100D5000331F441FAA1FA9F335D00E2E3AF0E0E846
:100D600032D091505040E695001CCAF72BD0FE2F90
:100D700029D0660F771F881FBB1F26173707480724
:100D8000AB07B0E809F0BB0B802DBF01FF279358DC
:100D90005F4F3AF09E3F510578F00C9484070C9415
:100DA00010085F3FE4F3983ED4F3869577956795F6
:100DB000B795F7959F5FC9F7880F911D9695879511
:100DC00097F90895E1E0660F771F881FBB1F621730
:100DD00073078407BA0720F0621B730B840BBA0BEE
:100DE000EE1F88F7E09508950E94DD0788F09F5771
:100DF00098F0B92F9927B751B0F0E1F0660F771F3F
:100E0000881F991F1AF0BA95C9F714C0B13091F034
:100E10000E940F08B1E008950C940F08672F782FF7
:100E20008827B85F39F0B93FCCF3869577956795F9
:100E3000B395D9F73EF490958095709561957F4F65
:100E40008F4F9F4F0895E89409C097FB3EF490950B
:100E50008095709561957F4F8F4F9F4F9923A9F093
:100E6000F92F96E9BB279395F69587957795679522
:100E7000B795F111F8CFFAF4BB0F11F460FF1BC066
:100E80006F5F7F4F8F4F9F4F16C0882311F096E9F9
:100E900011C0772321F09EE8872F762F05C06623A7
:100EA00071F096E8862F70E060E02AF09A95660F60
:100EB000771F881FDAF7880F9695879597F9089519
:100EC000990F0008550FAA0BE0E8FEEF161617065B
:100ED000E807F907C0F012161306E407F50798F0C3
:100EE000621B730B840B950B39F40A2661F0232BDC
:100EF000242B252B21F408950A2609F4A140A69558
:100F00008FEF811D811D089597F99F6780E870E03C
:100F100060E00895882371F4772321F09850872B9F
:100F2000762F07C0662311F499270DC09051862BA8
:100F300070E060E02AF09A95660F771F881FDAF755
:100F4000880F9695879597F908959F3F31F09150B6
:100F500020F4879577956795B795880F911D96959D
:100F6000879597F908959FEF80EC089500240A94DF
:100F70001616170618060906089500240A94121674
:100F80001306140605060895092E0394000C11F4A7
:100F9000882352F0BB0F40F4BF2B11F460FF04C054
:100FA0006F5F7F4F8F4F9F4F089557FD9058440FAD
:100FB000551F59F05F3F71F04795880F97FB991FB8
:100FC00061F09F3F79F08795089512161306140675
:100FD000551FF2CF4695F1DF08C016161706180602
:100FE000991FF1CF869571056105089408950E94B7
:100FF000DD07A0F0BEE7B91788F4BB279F3860F47F
:101000001616B11D672F782F8827985FF7CF869522
:1010100077956795B11D93959639C8F30895E8942F
:10102000BB2766277727CB0197F908950E946007B1
:1010300008F48FEF08950E942E080C94C4070E94B4
:10104000B60738F00E94BD0720F0952311F00C94EC
:1010500084070C94B30711240C9410080E94D50740
:1010600070F3959FC1F3950F50E0551F629FF001FB
:10107000729FBB27F00DB11D639FAA27F00DB11D14
:10108000AA1F649F6627B00DA11D661F829F22279D
:10109000B00DA11D621F739FB00DA11D621F839F24
:1010A000A00D611D221F749F3327A00D611D231FFA
:1010B000849F600D211D822F762F6A2F11249F5748
:1010C00050409AF0F1F088234AF0EE0FFF1FBB1F4B
:1010D000661F771F881F91505040A9F79E3F51050A
:1010E00080F00C9484070C9410085F3FE4F3983E62
:1010F000D4F3869577956795B795F795E7959F5FB4
:10110000C1F7FE2B880F911D9695879597F9089545
:10111000689401C0E8948F929F92CF93DF930E94CE
:101120009608DF91CF919F908F90089588249924FD
:10113000F401E401B0E49F93AA279A158B049C0460
:10114000ED05FE05CF05D007A10798F4AD2FDC2FE4
:10115000CF2FFE2FE92D982C892E982F872F762FB1
:10116000652F542F432F322F2227B85031F7BF91CC
:1011700027C01B2EBF91BB27220F331F441F551FB3
:10118000661F771F881F991F881C991CEE1FFF1F61
:10119000CC1FDD1FAA1FBB1F8A149B04EC05FD0595
:1011A000CE05DF05A007B10748F08A189B08EC09B7
:1011B000FD09CE09DF09A00BB10B21601A94E1F6FD
:1011C0002EF49401AF01BE01CD01000C089500245E
:1011D000A7FD00942A0F301D401D501D601D701D7D
:1011E000801D901D08950024A7FD00942A17300546
:1011F0004005500560057005800590050895F89438
:02120000FFCF1E
:10120200F4014E0000002C014900000053000203CB
:101212000D000E0002022F037B040A0471044C032A
:02122200810445
:00000001FF
