:100000000C942A000C944A000C9471000C949800F3
:100010000C9447000C94C9000C9447000C944700C2
:100020000C9447000C9447000C9447000C94470034
:100030000C9447000C9447000C9447000C94470024
:100040000C9447000C9447000C9447000C94470014
:100050000C94470011241FBECFE5D8E0DEBFCDBF12
:1000600010E0A0E6B0E0ECE0F2E002C005900D92F6
:10007000A036B107D9F720E0A0E6B0E001C01D929C
:10008000AB36B207E1F70E9449000C9404010C94CE
:100090000000FFCF1F920F920FB60F9211242F93E3
:1000A0003F934F935F936F937F938F939F93AF9300
:1000B000BF93EF93FF93E0916400F0916500099581
:1000C000FF91EF91BF91AF919F918F917F916F9130
:1000D0005F914F913F912F910F900FBE0F901F9006
:1000E00018951F920F920FB60F9211242F933F93E2
:1000F0004F935F936F937F938F939F93AF93BF9330
:10010000EF93FF93E0916200F09163000995FF91F6
:10011000EF91BF91AF919F918F917F916F915F917F
:100120004F913F912F910F900FBE0F901F901895F8
:100130001F920F920FB60F9211242F933F934F935C
:100140005F936F937F938F939F93AF93BF93EF933F
:10015000FF93E0916000F09161000995FF91EF91AC
:10016000BF91AF919F918F917F916F915F914F91CF
:100170003F912F910F900FBE0F901F90189585B54E
:100180008E7F85BD85B58D7F85BD85B58B7F85BD12
:1001900008951F920F920FB60F9211242F933F9341
:1001A0004F935F936F937F938F939F93AF93BF937F
:1001B000EF93FF938091680090916900019690936E
:1001C0006900809368002091660030916700821773
:1001D000930748F0109269001092680081E08093C4
:1001E0006A000E94BF00FF91EF91BF91AF919F9174
:1001F0008F917F916F915F914F913F912F910F90D0
:0C0200000FBE0F901F901895F894FFCFD0
:00000001FF
