:100000000C942A000C945A030C9481030C94A803BA
:100010000C9447000C942F050C9447000C94470057
:100020000C9447000C9447000C9447000C94470034
:100030000C9447000C9447000C9447000C94470024
:100040000C9447000C9447000C9447000C94470014
:100050000C94470011241FBECFE5D8E0DEBFCDBF12
:1000600010E0A0E6B0E0ECE7F3E102C005900D92ED
:10007000A638B107D9F720E0A6E8B0E001C01D928C
:10008000A33BB207E1F70E94F4000C94BC090C9466
:10009000000085E790E00E94A200089583E790E0C9
:1000A0000E94A20008950E94940681E08093860039
:1000B000089585E790E00E94970083E790E00E9412
:1000C000970080E790E00E94AC008CE690E00E94F0
:1000D00094000E94AD0566E670E080E00E94DA05BB
:1000E00060E670E081E00E94DA050895CF93DF9327
:1000F0001F92CDB7DEB781E0898380918600882387
:1001000019F0813021F0F9CF0E940606F6CFBE012A
:100110006F5F7F4F80E790E00E94B7008981811177
:10012000ECCF10928600E9CF0E94B50208950097A7
:1001300039F0FC0160E080810E94FB0081E00895BD
:1001400080E00895009731F0FC0180810E9439021F
:1001500081E0089580E00895009739F0FC0162E0A5
:1001600080810E94FB0081E0089580E00895EF9275
:10017000FF920F931F93CF93DF931F92CDB7DEB7FC
:10018000009739F16115710531F17B018C011982FC
:10019000BE016F5F7F4FFC0180810E94F801F80172
:1001A0008281811109C08981813019F4F70180832E
:1001B0000EC0F70110820BC0813049F48981811192
:1001C00003C0F701108203C081E0F701808381E062
:1001D00003C080E001C080E00F90DF91CF911F91BC
:1001E0000F91FF90EF9008950E9459000E947600B1
:1001F00080E090E00895982F969596959695877053
:10020000613009F455C020F0623009F4A1C00895AE
:100210009130C1F028F0923039F19330B9F108955E
:100220004AB321E030E0B90102C0660F771F8A951A
:10023000E2F7CB01942F982B9ABB9BB3809589232F
:100240008BBB089547B321E030E0B90102C0660FCF
:10025000771F8A95E2F7CB01942F982B97BB98B321
:100260008095892388BB089544B321E030E0B9012B
:1002700002C0660F771F8A95E2F7CB01942F982B67
:1002800094BB95B38095892385BB089541B321E044
:1002900030E0B90102C0660F771F8A95E2F7CB0103
:1002A000942F982B91BB92B38095892382BB08959C
:1002B0009130C1F028F0923039F19330B9F10895BE
:1002C0004AB321E030E0B90102C0660F771F8A957A
:1002D000E2F7CB018095942F98239ABB9BB3892397
:1002E0008BBB089547B321E030E0B90102C0660F2F
:1002F000771F8A95E2F7CB018095942F982397BBBF
:1003000098B3892388BB089544B321E030E0B90154
:1003100002C0660F771F8A95E2F7CB018095942F74
:10032000982394BB95B3892385BB089541B321E0FD
:1003300030E0B90102C0660F771F8A95E2F7CB0162
:100340008095942F982391BB92B3892382BB089503
:100350009130C1F028F0923039F19330B9F108951D
:100360004AB321E030E0B90102C0660F771F8A95D9
:10037000E2F7CB01962F909594239ABB9BB3892BE0
:100380008BBB089547B321E030E0B90102C0660F8E
:10039000771F8A95E2F7CB01962F9095942397BB10
:1003A00098B3892B88BB089544B321E030E0B901AC
:1003B00002C0660F771F8A95E2F7CB01962F9095C2
:1003C000942394BB95B3892B85BB089541B321E059
:1003D00030E0B90102C0660F771F8A95E2F7CB01C2
:1003E000962F9095942391BB92B3892B82BB08954D
:1003F000982F9695969596958770913099F028F05C
:100400009230E9F0933041F1089529B330E0A90129
:1004100002C0559547958A95E2F7CA018170FB01A4
:100420008083089526B330E0A90102C05595479511
:100430008A95E2F7CA018170FB018083089523B396
:1004400030E0A90102C0559547958A95E2F7CA01A7
:100450008170FB018083089520B330E0A90102C0C0
:10046000559547958A95E2F7CA018170FB01808313
:100470000895982F9695969596958770913099F056
:1004800028F09230E9F0933041F108954BB321E028
:1004900030E0B90102C0660F771F8A95E2F7CB0101
:1004A00084278BBB089548B321E030E0B90102C036
:1004B000660F771F8A95E2F7CB01842788BB0895E2
:1004C00045B321E030E0B90102C0660F771F8A957D
:1004D000E2F7CB01842785BB089542B321E030E0E9
:1004E000B90102C0660F771F8A95E2F7CB01842716
:1004F00082BB0895009731F090938C0080938B001D
:1005000081E0089580E00895009731F090938A008B
:100510008093890081E0089580E00895009731F08C
:10052000909388008093870081E0089580E008958B
:100530000097B9F0FC018281813049F018F08230D7
:1005400059F011C0808191810E947A0208958081C2
:1005500091810E9484020895808191810E948E027F
:10056000089580E0089580E008951F93CF93DF936E
:10057000009709F497C0EC018A818130E9F120F0FD
:10058000823009F471C090C08B8181110AC00E9431
:10059000CF038BB780648BBF85B78C7F85BF11E09D
:1005A00027C0813059F40E94CF038BB780648BBF82
:1005B00085B78D7F816085BF11E01AC0823059F404
:1005C0000E94CF038BB780648BBF85B782608E7F1C
:1005D00085BF11E00DC0833051F40E94CF038BB76B
:1005E00080648BBF85B7836085BF11E001C010E0D8
:1005F000CE010E94980259C08B8181110AC00E94CD
:10060000CF038BB780688BBF85B7837F85BF11E031
:1006100027C0813059F40E94CF038BB780688BBF0D
:1006200085B7877F846085BF11E01AC0823059F496
:100630000E94CF038BB780688BBF85B788608B7FA4
:1006400085BF11E00DC0833051F40E94CF038BB7FA
:1006500080688BBF85B78C6085BF11E001C010E05A
:10066000CE010E94980221C08B81823051F40E94F9
:10067000CF038BB780628BBF84B78F7B84BF11E0C1
:100680000DC0833051F40E94CF038BB780628BBFC3
:1006900084B7806484BF11E001C010E0CE010E94E5
:1006A000980203C010E001C010E0812FDF91CF91CC
:1006B0001F9108951F920F920FB60F9211242F933E
:1006C0003F934F935F936F937F938F939F93AF93DA
:1006D000BF93EF93FF93E0918B00F0918C0009950D
:1006E000FF91EF91BF91AF919F918F917F916F910A
:1006F0005F914F913F912F910F900FBE0F901F90E0
:1007000018951F920F920FB60F9211242F933F93BB
:100710004F935F936F937F938F939F93AF93BF9309
:10072000EF93FF93E0918900F0918A000995FF9182
:10073000EF91BF91AF919F918F917F916F915F9159
:100740004F913F912F910F900FBE0F901F901895D2
:100750001F920F920FB60F9211242F933F934F9336
:100760005F936F937F938F939F93AF93BF93EF9319
:10077000FF93E0918700F09188000995FF91EF9138
:10078000BF91AF919F918F917F916F915F914F91A9
:100790003F912F910F900FBE0F901F9018958FB71C
:1007A00080688FBF0895882319F0813079F016C0D2
:1007B00085B58F7B85BD85B5877F85BD8FB7806803
:1007C0008FBF89B7806489BF80E0089585B58F7B2E
:1007D00085BD85B5877F85BD80E0089581E008955A
:1007E000CF92DF92EF92FF92BC0180E090E00E94F6
:1007F000E00720E030E04AE754E40E943F076B0145
:100800007C0127E337E346E855E40E94D308181635
:100810000CF49EC015BC2DEB37E346E85DE3C70141
:10082000B6010E943A078823F4F52DEB37E346E83A
:100830005DE3C701B6010E943F070E9423070E94A3
:10084000B107709392006093910080E090E00E9465
:10085000E00720E030E040E85FE30E94B6062DEBC1
:1008600037E346E85DE30E94D8089B01AC01C7016D
:10087000B6010E94B60623EB3FEE4AE859E30E9418
:100880003F079B01AC0160E070E080E893E40E94C8
:10089000B6060E94B10764BD84B590E090939000C5
:1008A00080938F004FC02DEB37E346E85DE3C7012F
:1008B000B6010E943A07811108C014BC81E090E0A3
:1008C00090939200809391003DC02DEB37E346E872
:1008D0005DE3C701B6010E943F070E9423070E9403
:1008E000B107709392006093910080E090E00E94C5
:1008F000E00720E030E040E85FE30E94B6062DEB21
:1009000037E346E85DE30E94D8089B01AC01C701CC
:10091000B6010E94B60623EB3FEE4AE859E30E9477
:100920003F079B01AC0160E070E080E893E40E9427
:10093000B6060E94B10764BD84B590E09093900024
:1009400080938F00109294001092930080E001C079
:1009500081E0FF90EF90DF90CF9008958034910573
:10096000C1F150F48830910501F18032910541F1D7
:10097000019709F058C00EC0811521E09207E9F1F6
:10098000811524E0920709F443C08038910509F0ED
:100990004AC028C085B58D7F85BD85B58B7F85BD57
:1009A00085B5816085BD80E0089585B58E7F85BD64
:1009B00085B58B7F85BD85B5826085BD80E0089556
:1009C00085B58B7F85BD85B5826085BD85B5816028
:1009D00085BD85B5846085BD85B58D7F85BD85B5B3
:1009E0008E7F85BD85B58B7F85BD85B58D7F85BDAA
:1009F00085B5816085BD80E0089585B5826085BD3F
:100A000085B58E7F85BD85B5846085BD80E0089500
:100A100085B5826085BD85B5846085BD85B58160FD
:100A200085BD80E0089581E0089585B58E7F85BD00
:100A300085B58D7F85BD85B58B7F85BD08950E9469
:100A4000150589B78F7B89BF0895009731F0909382
:100A50008E0080938D0080E0089581E008951F92BC
:100A60000F920FB60F9211242F933F934F935F93E2
:100A70006F937F938F939F93AF93BF93EF93FF9366
:100A800080919300909194000196909394008093AC
:100A9000930020919100309192008217930760F0AB
:100AA00080918F0084BD1092940010929300E09189
:100AB0008D00F0918E000995FF91EF91BF91AF915C
:100AC0009F918F917F916F915F914F913F912F9166
:100AD0000F900FBE0F901F90189581E080939D009E
:100AE0002091950030919600409197005091980088
:100AF0006091990070919A0080919B0090919C0068
:100B0000A1E00E94A40920939500309396004093A1
:100B10009700509398006093990070939A00809387
:100B20009B0090939C002F3F3F4F4F4F5F476105C5
:100B300071058105910581F410929500109296003F
:100B400010929700109298001092990010929A00BB
:100B500010929B0010929C000895CF93DF93809198
:100B60009E00811123C0C8E7D0E0E981FA8180E0CE
:100B700090E00995E985FA8584E690E00995EB8592
:100B8000FC858DE695E0099581E080939E0080E0EC
:100B900009C0E82FF0E0EE0FFF1FE156FF4F118272
:100BA00010828F5F8A30A8F380E001C081E0DF917E
:100BB000CF91089561157105F9F0FB012281338110
:100BC000232BE1F020813181232BD1F0282F30E03D
:100BD000F901EE0FFF1FE156FF4F40815181452B78
:100BE00089F48A3088F4220F331FF901E156FF4F50
:100BF0007183608380E0089582E0089582E0089523
:100C000083E0089584E0089584E008958F929F9290
:100C1000AF92BF92CF92DF92EF92FF920F931F930A
:100C2000CF9380E00BC0E82FF0E0EE0FFF1FE156FE
:100C3000FF4F20813181232B19F48F5F8A3098F385
:100C40008A3009F462C010927700E0917D00F09143
:100C50007E0080E091E0099580917700823009F470
:100C600056C0882321F0813009F446C0F5CF809129
:100C70009D00813089F780937700EECFEC2FF0E074
:100C8000EE0FFF1FE156FF4F808091808114910489
:100C900089F1D4010D911C91B0919500A09196001D
:100CA000F0919700E09198009091990080919A00BE
:100CB000A02EB12EC12CD12CE12CF12C00E010E0A3
:100CC0002B2F3A2F4F2F5E2F692F782F80919B006B
:100CD00090919C000E944509A0E00E94B00951F447
:100CE000D4011296ED91FC91139714968D919C91DD
:100CF00015970995CF5F01C0C0E0CA3008F4BECF98
:100D000010929D0010927700A7CF87E001C088E085
:100D1000CF911F910F91FF90EF90DF90CF90BF90F8
:100D2000AF909F908F900895809177008230E1F08E
:100D300082E08093770010929D00109295001092AF
:100D400096001092970010929800109299001092BD
:100D50009A0010929B0010929C00E0917F00F0910D
:100D60008000099580E0089581E008955058BB27E0
:100D7000AA270E94CE060C9481080E94730838F0BE
:100D80000E947A0820F039F49F3F19F426F40C945D
:100D900070080EF4E095E7FB0C944108E92F0E94DF
:100DA000920858F3BA17620773078407950720F073
:100DB00079F4A6F50C94CC080EF4E0950B2EBA2F1E
:100DC000A02D0B01B90190010C01CA01A001112451
:100DD000FF27591B99F0593F50F4503E68F11A16FD
:100DE000F040A22F232F342F4427585FF3CF46958E
:100DF00037952795A795F0405395C9F77EF41F16B0
:100E0000BA0B620B730B840BBAF09150A1F0FF0F79
:100E1000BB1F661F771F881FC2F70EC0BA0F621F65
:100E2000731F841F48F4879577956795B795F79555
:100E30009E3F08F0B0CF9395880F08F09927EE0FEA
:100E40009795879508950E94B40890F09F3748F4CD
:100E5000911116F40C94CD0860E070E080E89FE3F7
:100E6000089526F01B16611D711D811D0C94470805
:100E70000C9462080E941D0808F481E008950E9405
:100E800053070C9481080E947A0858F00E94730856
:100E900040F029F45F3F29F00C94410851110C9463
:100EA000CD080C9470080E94920868F39923B1F35E
:100EB000552391F3951B550BBB27AA276217730780
:100EC000840738F09F5F5F4F220F331F441FAA1F14
:100ED000A9F335D00E2E3AF0E0E832D091505040D0
:100EE000E695001CCAF72BD0FE2F29D0660F771F7E
:100EF000881FBB1F261737074807AB07B0E809F064
:100F0000BB0B802DBF01FF2793585F4F3AF09E3FE8
:100F1000510578F00C9441080C94CD085F3FE4F340
:100F2000983ED4F3869577956795B795F7959F5F2B
:100F3000C9F7880F911D9695879597F90895E1E077
:100F4000660F771F881FBB1F621773078407BA07D6
:100F500020F0621B730B840BBA0BEE1F88F7E09531
:100F600008950E949A0888F09F5798F0B92F992702
:100F7000B751B0F0E1F0660F771F881F991F1AF084
:100F8000BA95C9F714C0B13091F00E94CC08B1E015
:100F900008950C94CC08672F782F8827B85F39F014
:100FA000B93FCCF3869577956795B395D9F73EF41D
:100FB00090958095709561957F4F8F4F9F4F0895C5
:100FC000E89409C097FB3EF49095809570956195E3
:100FD0007F4F8F4F9F4F9923A9F0F92F96E9BB2799
:100FE0009395F695879577956795B795F111F8CF15
:100FF000FAF4BB0F11F460FF1BC06F5F7F4F8F4F80
:101000009F4F16C0882311F096E911C0772321F075
:101010009EE8872F762F05C0662371F096E8862F0D
:1010200070E060E02AF09A95660F771F881FDAF764
:10103000880F9695879597F90895990F0008550F91
:10104000AA0BE0E8FEEF16161706E807F907C0F04E
:1010500012161306E407F50798F0621B730B840B56
:10106000950B39F40A2661F0232B242B252B21F430
:1010700008950A2609F4A140A6958FEF811D811DD0
:10108000089597F99F6780E870E060E008958823ED
:1010900071F4772321F09850872B762F07C06623B1
:1010A00011F499270DC09051862B70E060E02AF072
:1010B0009A95660F771F881FDAF7880F96958795A0
:1010C00097F908959F3F31F0915020F487957795D7
:1010D0006795B795880F911D9695879597F908950F
:1010E0009FEF80EC089500240A9416161706180640
:1010F0000906089500240A9412161306140605061C
:101100000895092E0394000C11F4882352F0BB0FAC
:1011100040F4BF2B11F460FF04C06F5F7F4F8F4F0F
:101120009F4F089557FD9058440F551F59F05F3F4A
:1011300071F04795880F97FB991F61F09F3F79F0F9
:1011400087950895121613061406551FF2CF46957B
:10115000F1DF08C0161617061806991FF1CF8695FD
:1011600071056105089408950E949A08A0F0BEE7F1
:10117000B91788F4BB279F3860F41616B11D672F86
:10118000782F8827985FF7CF869577956795B11D5B
:1011900093959639C8F30895E894BB276627772777
:1011A000CB0197F908950E941D0808F48FEF089568
:1011B0000E94EB080C9481080E94730838F00E948A
:1011C0007A0820F0952311F00C9441080C947008D3
:1011D00011240C94CD080E94920870F3959FC1F3DE
:1011E000950F50E0551F629FF001729FBB27F00DD5
:1011F000B11D639FAA27F00DB11DAA1F649F66272A
:10120000B00DA11D661F829F2227B00DA11D621F78
:10121000739FB00DA11D621F839FA00D611D221F32
:10122000749F3327A00D611D231F849F600D211D16
:10123000822F762F6A2F11249F5750409AF0F1F099
:1012400088234AF0EE0FFF1FBB1F661F771F881F02
:1012500091505040A9F79E3F510580F00C944108F1
:101260000C94CD085F3FE4F3983ED4F386957795D0
:101270006795B795F795E7959F5FC1F7FE2B880FA8
:10128000911D9695879597F90895689401C0E89403
:101290008F929F92CF93DF930E945309DF91CF915A
:1012A0009F908F90089588249924F401E401B0E47C
:1012B0009F93AA279A158B049C04ED05FE05CF0584
:1012C000D007A10798F4AD2FDC2FCF2FFE2FE92DEB
:1012D000982C892E982F872F762F652F542F432FE8
:1012E000322F2227B85031F7BF9127C01B2EBF9154
:1012F000BB27220F331F441F551F661F771F881FF0
:10130000991F881C991CEE1FFF1FCC1FDD1FAA1FF1
:10131000BB1F8A149B04EC05FD05CE05DF05A00765
:10132000B10748F08A189B08EC09FD09CE09DF09CE
:10133000A00BB10B21601A94E1F62EF49401AF01D9
:10134000BE01CD01000C08950024A7FD00942A0FD2
:10135000301D401D501D601D701D801D901D089585
:101360000024A7FD00942A173005400550056005AC
:0C1370007005800590050895F894FFCFEB
:10137C0005004E000000030049000000530002026B
:10138C001401000D000E000202D3031F05AE04155C
:06139C0005F00325050029
:00000001FF
